{
  "contractName": "BadBank",
  "abi": [
    {
      "constant": true,
      "inputs": [
        {
          "name": "",
          "type": "address"
        }
      ],
      "name": "balances",
      "outputs": [
        {
          "name": "",
          "type": "uint256"
        }
      ],
      "payable": false,
      "stateMutability": "view",
      "type": "function"
    },
    {
      "constant": true,
      "inputs": [],
      "name": "owner",
      "outputs": [
        {
          "name": "",
          "type": "address"
        }
      ],
      "payable": false,
      "stateMutability": "view",
      "type": "function"
    },
    {
      "constant": false,
      "inputs": [],
      "name": "constructor",
      "outputs": [],
      "payable": true,
      "stateMutability": "payable",
      "type": "function"
    },
    {
      "constant": true,
      "inputs": [
        {
          "name": "user",
          "type": "address"
        }
      ],
      "name": "getUserBalance",
      "outputs": [
        {
          "name": "",
          "type": "uint256"
        }
      ],
      "payable": false,
      "stateMutability": "view",
      "type": "function"
    },
    {
      "constant": false,
      "inputs": [],
      "name": "addToBalance",
      "outputs": [
        {
          "name": "",
          "type": "bool"
        }
      ],
      "payable": true,
      "stateMutability": "payable",
      "type": "function"
    },
    {
      "constant": false,
      "inputs": [],
      "name": "checkBalance",
      "outputs": [
        {
          "name": "",
          "type": "uint256"
        }
      ],
      "payable": false,
      "stateMutability": "nonpayable",
      "type": "function"
    },
    {
      "constant": false,
      "inputs": [],
      "name": "withdrawBalance",
      "outputs": [
        {
          "name": "",
          "type": "bool"
        }
      ],
      "payable": false,
      "stateMutability": "nonpayable",
      "type": "function"
    }
  ],
  "bytecode": "0x608060405234801561001057600080fd5b50610483806100206000396000f300608060405260043610610083576000357c0100000000000000000000000000000000000000000000000000000000900463ffffffff16806327e235e31461008857806347734892146100df5780635fd8c710146101365780638da5cb5b1461016557806390fa17bb146101bc578063c0e317fb146101c6578063c71daccb146101e8575b600080fd5b34801561009457600080fd5b506100c9600480360381019080803573ffffffffffffffffffffffffffffffffffffffff169060200190929190505050610213565b6040518082815260200191505060405180910390f35b3480156100eb57600080fd5b50610120600480360381019080803573ffffffffffffffffffffffffffffffffffffffff16906020019092919050505061022b565b6040518082815260200191505060405180910390f35b34801561014257600080fd5b5061014b610274565b604051808215151515815260200191505060405180910390f35b34801561017157600080fd5b5061017a610343565b604051808273ffffffffffffffffffffffffffffffffffffffff1673ffffffffffffffffffffffffffffffffffffffff16815260200191505060405180910390f35b6101c4610368565b005b6101ce6103aa565b604051808215151515815260200191505060405180910390f35b3480156101f457600080fd5b506101fd610438565b6040518082815260200191505060405180910390f35b60016020528060005260406000206000915090505481565b6000600160008373ffffffffffffffffffffffffffffffffffffffff1673ffffffffffffffffffffffffffffffffffffffff168152602001908152602001600020549050919050565b600080600160003373ffffffffffffffffffffffffffffffffffffffff1673ffffffffffffffffffffffffffffffffffffffff168152602001908152602001600020549050600015153373ffffffffffffffffffffffffffffffffffffffff168260405160006040518083038185875af192505050151514156102f657600080fd5b6000600160003373ffffffffffffffffffffffffffffffffffffffff1673ffffffffffffffffffffffffffffffffffffffff16815260200190815260200160002081905550600191505090565b6000809054906101000a900473ffffffffffffffffffffffffffffffffffffffff1681565b336000806101000a81548173ffffffffffffffffffffffffffffffffffffffff021916908373ffffffffffffffffffffffffffffffffffffffff160217905550565b600034600160003373ffffffffffffffffffffffffffffffffffffffff1673ffffffffffffffffffffffffffffffffffffffff1681526020019081526020016000205401600160003373ffffffffffffffffffffffffffffffffffffffff1673ffffffffffffffffffffffffffffffffffffffff168152602001908152602001600020819055506001905090565b60003073ffffffffffffffffffffffffffffffffffffffff16319050905600a165627a7a7230582017166d3bee4c7cd5e9007377da76779fd750db32bc0c8f2f78e5c18c4340704f0029",
  "source": "pragma solidity ^0.4.23;\n\ncontract BadBank {\n  //provides eth balance mappings\n  address public owner;\n  mapping(address => uint256) public balances;\n  //Constructor\n  function constructor() payable public{\n    owner = msg.sender;\n  }\n  //returns user balances\n  function getUserBalance(address user) constant public returns(uint) {\n    return balances[user];\n  }\n  //adds whatever balance to the account\n  function addToBalance() payable public returns(bool){\n    balances[msg.sender] = balances[msg.sender] + msg.value;\n    return true;\n  }\n  function checkBalance() public returns(uint256) {\n    return address(this).balance;\n  }\n  //problem function!!!\n  function withdrawBalance() public returns(bool){\n    uint amountToWithdraw = balances[msg.sender];\n    if(msg.sender.call.value(amountToWithdraw)()==false) {\n        throw;\n    }\n    balances[msg.sender] = 0;\n    return true;\n  }\n\n}\n",
  "sourcePath": "/Users/Koji/smartcontract_challenge/trial2/contracts/BadBank.sol",
  "compiler": {
    "name": "solc",
    "version": "0.4.24+commit.e67f0147.Emscripten.clang"
  },
  "schemaVersion": "2.0.1",
  "updatedAt": "2018-06-22T11:27:17.375Z"
}