{
  "contractName": "BadContract",
  "abi": [
    {
      "constant": true,
      "inputs": [
        {
          "name": "",
          "type": "address"
        }
      ],
      "name": "balances",
      "outputs": [
        {
          "name": "",
          "type": "uint256"
        }
      ],
      "payable": false,
      "stateMutability": "view",
      "type": "function"
    },
    {
      "constant": true,
      "inputs": [
        {
          "name": "user",
          "type": "address"
        }
      ],
      "name": "getUserBalance",
      "outputs": [
        {
          "name": "",
          "type": "uint256"
        }
      ],
      "payable": false,
      "stateMutability": "view",
      "type": "function"
    },
    {
      "constant": false,
      "inputs": [],
      "name": "addToBalance",
      "outputs": [],
      "payable": false,
      "stateMutability": "nonpayable",
      "type": "function"
    },
    {
      "constant": false,
      "inputs": [],
      "name": "withdrawBalance",
      "outputs": [],
      "payable": false,
      "stateMutability": "nonpayable",
      "type": "function"
    }
  ],
  "bytecode": "0x608060405234801561001057600080fd5b5061031b806100206000396000f300608060405260043610610062576000357c0100000000000000000000000000000000000000000000000000000000900463ffffffff16806327e235e31461006757806347734892146100be5780635fd8c71014610115578063c0e317fb1461012c575b600080fd5b34801561007357600080fd5b506100a8600480360381019080803573ffffffffffffffffffffffffffffffffffffffff169060200190929190505050610143565b6040518082815260200191505060405180910390f35b3480156100ca57600080fd5b506100ff600480360381019080803573ffffffffffffffffffffffffffffffffffffffff16906020019092919050505061015b565b6040518082815260200191505060405180910390f35b34801561012157600080fd5b5061012a6101a3565b005b34801561013857600080fd5b5061014161026a565b005b60006020528060005260406000206000915090505481565b60008060008373ffffffffffffffffffffffffffffffffffffffff1673ffffffffffffffffffffffffffffffffffffffff168152602001908152602001600020549050919050565b60008060003373ffffffffffffffffffffffffffffffffffffffff1673ffffffffffffffffffffffffffffffffffffffff168152602001908152602001600020549050600015153373ffffffffffffffffffffffffffffffffffffffff168260405160006040518083038185875af1925050501515141561022357600080fd5b60008060003373ffffffffffffffffffffffffffffffffffffffff1673ffffffffffffffffffffffffffffffffffffffff1681526020019081526020016000208190555050565b346000803373ffffffffffffffffffffffffffffffffffffffff1673ffffffffffffffffffffffffffffffffffffffff16815260200190815260200160002054016000803373ffffffffffffffffffffffffffffffffffffffff1673ffffffffffffffffffffffffffffffffffffffff168152602001908152602001600020819055505600a165627a7a72305820954d237c28fe7a2f72b4d1649b35cfb3ab0944633ecd217c8ab71c599337ce770029",
  "source": "pragma solidity ^0.4.23;\n\ncontract BadContract {\n  mapping(address => uint256) public balances;\n\n  function getUserBalance(address user) constant returns(uint) {\n    return balances[user];\n  }\n  function addToBalance() {\n    balances[msg.sender] = balances[msg.sender] + msg.value;\n  }\n  function withdrawBalance() {\n    uint amountToWithdraw = balances[msg.sender];\n    if(msg.sender.call.value(amountToWithdraw)()==false) {\n      revert();\n    }\n    balances[msg.sender] = 0;\n  }\n}\n",
  "sourcePath": "/Users/Koji/smartcontract_challenge/trial2/contracts/BadContract.sol",
  "compiler": {
    "name": "solc",
    "version": "0.4.24+commit.e67f0147.Emscripten.clang"
  },
  "schemaVersion": "2.0.1",
  "updatedAt": "2018-06-22T07:16:40.171Z"
}